:060000000A128A1100291A
:10000800F000030EF1000B1916200B181020710ECA
:100018008300F00E700E0900061F850A861F8503EF
:100028000B10080003138312D93081000B118801CB
:1000380021193E28A11C23282118382832282118E4
:100048002C2826282408870088140130A1000800DD
:100058002508870008140230A10008002C08870032
:1000680008160330A10008002D0887008815043001
:10007800A10008002E08870008150030A10008001C
:1002000044214B215F216C217521A901AA01AB0179
:10021000031383120508A0001021272117210A29A2
:1002200020080F39A200200E0F39A3000800220871
:100230000022A40023080022A50029080022AC0007
:100240002A080022AD002B080022AE000800AB01F6
:100250002008A60064302602031C3129A700AB0A3F
:100260002929AA012708A8000A30A702031C3C2953
:100270002708A800AA0A3429A9010130A802031CF2
:100280004329A90A3D290800031383160F178F1667
:100290000F120F1408000317831688018901031336
:1002A00083168501870188010617861781131517A4
:1002B0009517031383128501870188010800031332
:1002C0008316811281110115811401140313831205
:1002D000D93081000B1108000313831616179617E7
:1002E0000313831206080B100800031383128B17E5
:0A02F0008B150B108B160B11080084
:100400008A018A140F3982073F3406345B344F3433
:1004100066346D347D3407347F346F3477347C3404
:0804200039345E347934713483
:04400E00C420FF3F8C
:00000001FF
