:060000000A128A1100291A
:10000800F000030EF1000B180E20710E8300F00EA5
:10001800700E0900061F850A861F85030B1008004D
:1002000007210E2123212C21031383120629031316
:1002100083160F178F160F120F140800031783167B
:10022000880189010313831685018701081088104E
:100230000617861781131517951703138312850167
:1002400087018801080003138316161796170313F6
:10025000831206080B100800031383128B178B15EB
:040260000B10080077
:100400008A018A140F3982073F3406345B344F3433
:1004100066346D347D3407347F346F343F347C343C
:0804200039345E347934713483
:04400E00C420FF3F8C
:00000001FF
