:060000000A128A1100291A
:10000800F000030EF1000B1916200B181020710ECA
:100018008300F00E700E0900061F850A861F8503EF
:100028000B10080003138312D93081000B118801CB
:1000380021193D28A11C23282118372831282118E7
:100048002B282408870088140130A10008002508FF
:10005800870008140230A10008002C088700081641
:100068000330A10008002D08870088150430A1007E
:0E00780008002E08870008150030A1000800BF
:1002000044214B215F216C217521031383120508C2
:10021000A0000D2114213421072920080F39A20044
:10022000200E0F39A3000800AB012008A600260805
:10023000A7006430A602031C21292608A700AB0AE8
:100240001929AA012708A8000A30A702031C2C2993
:100250002708A800AA0A2429A9010130A802031C22
:100260003329A90A2D29080022080022A400230806
:100270000022A50029080022AC002A080022AD00B7
:100280002B080022AE000800031383160F178F16E9
:100290000F120F1408000317831688018901031336
:1002A00083168501870188010617861781131517A4
:1002B0009517031383128501870188010800031332
:1002C0008316811281110115811401140313831205
:1002D000D93081000B1108000313831616179617E7
:1002E0000313831206080B100800031383128B17E5
:0A02F0008B150B108B160B11080084
:100400008A018A140F3982073F3406345B344F3433
:1004100066346D347D3407347F346F3477347C3404
:0804200039345E347934713483
:04400E00C420FF3F8C
:00000001FF
