:060000000A128A1100291A
:10000800F000030EF1000B1916200B181020710ECA
:100018008300F00E700E0900061F850A861F8503EF
:100028000B10080003138312D93081000B118801CB
:10003800211823282408870088142114080025087B
:080048008700081421100800D4
:100200001A212121362143214C2103138312050891
:10021000A0000C211321072920080F39A200200E6D
:100220000F39A300080022080022A400230800229E
:10023000A5000800031383160F178F160F120F1453
:1002400008000317831688018901031383168501AB
:100250008701081088100617861781131517951740
:100260000313831285018701880108000313831695
:100270008112811101158114011403138312D930E5
:1002800081000B110800031383161617961703132A
:10029000831206080B100800031383128B178B15AB
:0802A0000B108B160B11080076
:100400008A018A140F3982073F3406345B344F3433
:1004100066346D347D3407347F346F3477347C3404
:0804200039345E347934713483
:04400E00C420FF3F8C
:00000001FF
